:100000000C94DA000C94E6060C94BF060C940201E2
:100010000C9402010C9402010C9402010C94020154
:100020000C9402010C9402010C9402010C94020144
:100030000C9402010C9402010C9402010C94020134
:100040000C9475060C9402010C9443060C941D0646
:100050000C9402010C9402010C9402010C94020114
:100060000C9402010C94020100407A10F35A00A093
:10007000724E18090010A5D4E80000E87648170071
:1000800000E40B54020000CA9A3B000000E1F505B1
:10009000000080969800000040420F000000A086FB
:1000A00001000000102700000000E803000000002D
:1000B0006400000000000A000000000001000000D1
:1000C00000002C76D888DC674F0823DFC1DFAE59EB
:1000D000E1B1B796E5E3E453C63AE651997696E87E
:1000E000E6C28426EB898C9B62ED407C6FFCEFBC02
:1000F0009C9F40F2BAA56FA5F490055A2AF75C932D
:100100006B6CF9676DC11BFCE0E40D47FEF520E662
:10011000B500D0ED902E0300943577050080841E45
:10012000080000204E0A000000C80C333333330FA0
:10013000986E12831141EF8D2114893BE65516CF3D
:10014000FEE6DB18D1844B381BF77C1D901DA4BB49
:10015000E424203284725E228100C9F124ECA1E5FE
:100160003D2700000000240027002A0000000000B6
:10017000250028002B0004040404040404040202E3
:100180000202020203030303030301020408102016
:100190004080010204081020010204081020000021
:1001A0000008000201000003040700000000000036
:1001B00000000D0711241FBECFEFD8E0DEBFCDBF7A
:1001C00022E0ACEAB1E001C01D92A039B207E1F72C
:1001D00011E0A0E0B1E0ECE4F3E202C005900D9282
:1001E000AC3AB107D9F710E0CAEDD0E004C02197CE
:1001F000FE010E94FD0EC93DD107C9F70E945707B5
:100200000C94A4110C94000080E480937C008091F5
:100210007A00806480937A0080917A0086FDFCCF1A
:10022000809178009091790008950F931F932FB7D4
:10023000F8948091BF019091C001A091C101B0914B
:10024000C2012FBF4091C7015091C8016091C901FF
:100250007091CA010091D1011091D2012091D30176
:100260003091D401400F511F621F731F4817590767
:100270006A077B0760F54091C7015091C801609102
:10028000C9017091CA01452B462B472BC1F0409103
:10029000C7015091C8016091C9017091CA018C01D8
:1002A0009D01041B150B260B370BB901A8014093C8
:1002B000C3015093C4016093C5017093C60180933C
:1002C000C7019093C801A093C901B093CA011F91BF
:1002D0000F910895AF92BF92CF92DF92EF92FF926B
:1002E0000F931F93CF93DF936C017B018B01040F5E
:1002F000151FEB015E01AE18BF08C017D10759F0FA
:100300006991D601ED91FC910190F081E02DC6013B
:100310000995892B79F7C501DF91CF911F910F9135
:10032000FF90EF90DF90CF90BF90AF900895FC01C9
:10033000538D448D252F30E0842F90E0821B930B4A
:10034000541710F0CF96089501970895FC01918DF0
:10035000828D981761F0A28DAE0FBF2FB11D5D96F3
:100360008C91928D9F5F9F73928F90E008958FEF95
:100370009FEF0895FC01918D828D981731F0828D49
:10038000E80FF11D858D90E008958FEF9FEF0895A0
:10039000FC01918D228D892F90E0805C9F4F821B04
:1003A00091098F739927089589ED91E00E94C80102
:1003B00021E0892B09F420E0822F0895FC01A48D0F
:1003C000A80FB92FB11DA35ABF4F2C91848D90E077
:1003D00001968F739927848FA689B7892C93A0895A
:1003E000B1898C91837080648C93938D848D9813E4
:1003F00006C00288F389E02D80818F7D8083089577
:10040000EF92FF920F931F93CF93DF93EC0181E064
:10041000888F9B8D8C8D98131AC0E889F98980810B
:1004200085FF15C09FB7F894EE89FF896083E8893E
:10043000F98980818370806480839FBF81E090E030
:10044000DF91CF911F910F91FF90EF900895F62EBD
:100450000B8D10E00F5F1F4F0F731127E02E8C8D57
:100460008E110CC00FB607FCFACFE889F98980819C
:1004700085FFF5CFCE010E94DE01F1CFEB8DEC0FB1
:10048000FD2FF11DE35AFF4FF0829FB7F8940B8FB9
:10049000EA89FB8980818062CFCFCF93DF93EC0123
:1004A000888D8823B9F0AA89BB89E889F9898C915C
:1004B00085FD03C0808186FD0DC00FB607FCF7CF18
:1004C0008C9185FFF2CF808185FFEDCFCE010E9418
:1004D000DE01E9CFDF91CF91089590E0FC01E25673
:1004E000FE4F2491FC01E657FE4F3491FC01EA587F
:1004F000FE4FE491EE23C9F0222339F0233001F1BD
:10050000A8F4213019F1223029F1F0E0EE0FFF1F9D
:10051000E459FE4FA591B4918FB7F894EC91611115
:1005200026C030953E233C938FBF08952730A9F015
:100530002830C9F0243049F7809180008F7D03C0B6
:10054000809180008F7780938000DFCF84B58F7794
:1005500084BDDBCF84B58F7DFBCF8091B0008F77DA
:100560008093B000D2CF8091B0008F7DF9CF3E2B29
:10057000DACFCF93DF9390E0FC01E657FE4F249152
:100580008A589E4FFC0184918823D1F090E0880F17
:10059000991FFC01EE59FE4FA591B491FC01E4595D
:1005A000FE4FC591D49161110EC09FB7F8948C9104
:1005B000E22FE0958E238C932881E223E8839FBF6E
:1005C000DF91CF9108958FB7F894EC91E22BEC93E3
:1005D0008FBFF6CF3FB7F8948091AF019091B001F3
:1005E000A091B101B091B20126B5A89B05C02F3FE3
:1005F00019F00196A11DB11D3FBFBA2FA92F982F49
:100600008827BC01CD01620F711D811D911D42E043
:10061000660F771F881F991F4A95D1F708958F920B
:100620009F92AF92BF92CF92DF92EF92FF924B01D7
:100630005C010E94EA026B017C010E94EA026C19D3
:100640007D098E099F09683E734081059105A8F3D5
:1006500021E0821A9108A108B10888EEC80E83E053
:10066000D81EE11CF11C81149104A104B10429F7E6
:10067000FF90EF90DF90CF90BF90AF909F908F90C2
:1006800008950895089590E080E00895FF920F93F3
:100690001F93CF93DF930DEC11E0D0E0C0E0F801A1
:1006A000F1908F01CE010E949F0CF81621F06F2D62
:1006B000CE010E94A70C2196CC30D10581F78DEC9C
:1006C00091E0DF91CF911F910F91FF9008956115F7
:1006D000710579F0FB0101900020E9F73197AF0136
:1006E000461B570BDC01ED91FC910280F381E02D5C
:1006F000099490E080E008959F92AF92BF92CF92CC
:10070000DF92EF92FF920F931F93CF93DF93CDB7BA
:10071000DEB7E2970FB6F894DEBF0FBECDBF03EB96
:1007200011E08CE0982E92E2E92E91E0F92E26E27B
:10073000C22E21E0D22ECE0101965C0189ED91E01E
:100740000E94C801892B09F407C189ED91E00E943C
:10075000A601E091AC01F091AD01ED54FE4F808314
:100760008A3009F066C08091B301823709F087C0F2
:100770000E9404010E940401BC01990F880B990B8F
:100780000E94DB0D20E030E040E251E40E946C0E5C
:1007900020E030E040E85AE30E946C0E20E030E0B8
:1007A0004AE754E40E946C0E0E94AA0D9F938F9317
:1007B0007F936F938091D8018F938091D7018F930E
:1007C0008091D6018F938091D5018F93FF92EF9204
:1007D0008091D4018F938091D3018F938091D20126
:1007E0008F938091D1018F938091D0018F938091CD
:1007F000CF018F938091CE018F938091CD018F9304
:10080000DF92CF92BF92AF920E94030FB50189EDA4
:1008100091E00E9467030FB6F894DEBF0FBECDBF14
:100820001092AD011092AC01F801292D11922A9578
:10083000E9F78091AC019091AD010C9778F010929E
:10084000AD011092AC01F801292D11922A95E9F71A
:100850006AE371E089ED91E00E9467038091AC0149
:100860009091AD01FC01ED54FE4F2081222309F44B
:1008700065CF01969093AD018093AC015FCF8D362B
:1008800021F54AE050E070E060E084EB91E00E94E6
:1008900071096115FAEC7F07FAE98F07FBE39F07FF
:1008A00038F06AE371E089ED91E00E946703B8CF08
:1008B0006093CD017093CE018093CF019093D001CE
:1008C0000E9446036FE371E0EECF8436F1F44AE014
:1008D00050E070E060E084EB91E00E9471096034C8
:1008E00072448F409105E8F64AE050E070E060E025
:1008F00084EB91E00E9471096093D1017093D20161
:100900008093D3019093D401DBCF8437F9F44AE08C
:1009100050E070E060E084EB91E00E947109693979
:100920007A438105910508F0BCCF4AE050E070E0C1
:1009300060E084EB91E00E9471096093D5017093AF
:10094000D6018093D7019093D801BACF893609F0A8
:10095000A8CF63E471E0A7CFE2960FB6F894DEBFAC
:100960000FBECDBFDF91CF911F910F91FF90EF9000
:10097000DF90CF90BF90AF909F9008950E94D401D8
:1009800081110C947C030895CF93DF93EC0160E018
:100990008E810E946D0261E08E810E946D0260E096
:1009A0008E810E946D028BE891E00197F1F7DF9153
:1009B000CF910895CF92DF92EF92FF920F931F9302
:1009C000CF93DF936C017C0187E0E80EF11CD0E04F
:1009D000C0E0062F10E0B8010C2E02C07595679597
:1009E0000A94E2F76170F70181917F010E946D0224
:1009F0002196C430D10579F7C601DF91CF911F91BF
:100A00000F91FF90EF90DF90CF900C94C404CF92A1
:100A1000DF92EF92FF920F931F93CF93DF93EC013E
:100A2000F62E642F8C810E946D028D818F3F19F00C
:100A300060E00E946D020F2D10E08F8584FF25C0BD
:100A40006E0187E0C80ED11CF12CE12CB8010E2CF0
:100A500002C0759567950A94E2F76170F60181917D
:100A60006F010E946D02FFEFEF1AFF0A88E0E8169F
:100A7000F10461F7CE01DF91CF911F910F91FF90AB
:100A8000EF90DF90CF900C94C404B80184E075958A
:100A900067958A95E1F7CE010E94DA046F2DCE01A9
:100AA000DF91CF911F910F91FF90EF90DF90CF904A
:100AB0000C94DA0440E0682F86E792E00C94070576
:100AC00081E00E945A058BE39FE10197F1F70895B9
:100AD000CF93DF93823029F49091850298609093B0
:100AE00085028093890210928A0280E480938B02AF
:100AF00080E180938C0280E580938D0261E080919B
:100B00007A020E94B90280917B028F3F19F061E066
:100B10000E94B90261E080917C020E94B902C6E79E
:100B2000D2E09E01265732408091850284FD0BC0A1
:100B300084E090E021962817390744F461E08E8123
:100B40000E94B902EECF88E090E0F4CF8BE39DE005
:100B50000197F1F760E080917A020E946D0260E0F7
:100B600080917C020E946D0280917B028F3F19F080
:100B700060E00E946D028091850284FD34C063E0D4
:100B800086E792E00E94DA04CBE4D6E4CE01019736
:100B9000F1F763E086E792E00E94DA042197F1F72B
:100BA00063E086E792E00E94DA0483E592E0019731
:100BB000F1F762E086E792E00E94DA048091850214
:100BC00080620E945A0584E0809386028CE00E9435
:100BD0005A050E94600582E08093870286E0DF91DB
:100BE000CF910C945A0580620E945A058BE496E4DA
:100BF0000197F1F78091850280620E945A0583E592
:100C000092E00197F1F78091850280620E945A0577
:100C1000D5CF90918902891710F08FEF890FE82FB7
:100C2000F0E0EA58FD4F848980680C945A0541E051
:100C30000E94070581E090E008951F920F920FB681
:100C40000F9211242F933F934F935F936F937F9352
:100C50008F939F93AF93BF93EF93FF9389ED91E0B1
:100C60000E94DE01FF91EF91BF91AF919F918F9113
:100C70007F916F915F914F913F912F910F900FBE98
:100C80000F901F9018951F920F920FB60F9211247C
:100C90002F938F939F93EF93FF93E091E901F0914E
:100CA000EA018081E091EF01F091F00182FD1BC02B
:100CB00090818091F2018F5F8F732091F3018217F1
:100CC00041F0E091F201F0E0E752FE4F958F809302
:100CD000F201FF91EF919F918F912F910F900FBE95
:100CE0000F901F9018958081F4CF1F920F920FB62E
:100CF0000F9211242F933F938F939F93AF93BF93A2
:100D00008091BF019091C001A091C101B091C20139
:100D10003091AE0123E0230F2D3758F50196A11D28
:100D2000B11D2093AE018093BF019093C001A093A9
:100D3000C101B093C2018091AF019091B001A09127
:100D4000B101B091B2010196A11DB11D8093AF0117
:100D50009093B001A093B101B093B201BF91AF9154
:100D60009F918F913F912F910F900FBE0F901F90E9
:100D7000189526E8230F0296A11DB11DD2CF1F9210
:100D80000F920FB60F9211242F933F934F935F93BF
:100D90006F937F938F939F93AF93BF93EF93FF9343
:100DA000E0910201F09103010995FF91EF91BF914C
:100DB000AF919F918F917F916F915F914F913F91F3
:100DC0002F910F900FBE0F901F9018951F920F92AA
:100DD0000FB60F9211242F933F934F935F936F930E
:100DE0007F938F939F93AF93BF93EF93FF93E09184
:100DF0000001F09101010995FF91EF91BF91AF9131
:100E00009F918F917F916F915F914F913F912F9122
:100E10000F900FBE0F901F901895E9EDF1E013822F
:100E2000128288EE93E0A0E0B0E084839583A683ED
:100E3000B78388E091E09183808385EC90E095878B
:100E4000848784EC90E09787868780EC90E0918B94
:100E5000808B81EC90E0938B828B82EC90E0958B81
:100E6000848B86EC90E0978B868B118E128E138E7E
:100E7000148EE6E7F2E0138212828AE191E0918318
:100E800080838DE084838FEF85838CE086838BE085
:100E900087838AE0808789E0818788E0828713865C
:100EA000148615861686178681E00C946805CF9304
:100EB000DF93CDB7DEB72E970FB6F894DEBF0FBE27
:100EC000CDBF789484B5826084BD84B5816084BDD3
:100ED00085B5826085BD85B5816085BD80916E00D8
:100EE000816080936E001092810080918100826009
:100EF0008093810080918100816080938100809146
:100F000080008160809380008091B1008460809334
:100F1000B1008091B00081608093B00080917A0030
:100F2000846080937A0080917A00826080937A0056
:100F300080917A00816080937A0080917A00806845
:100F400080937A001092C100E091E901F091EA01EA
:100F500082E08083E091E501F091E6011082E0916A
:100F6000E701F091E8018FEC80831092F101E091AC
:100F7000ED01F091EE0186E08083E091EB01F091CC
:100F8000EC01808180618083E091EB01F091EC01C4
:100F9000808188608083E091EB01F091EC01808199
:100FA00080688083E091EB01F091EC0180818F7D7E
:100FB0008083E3EBF1E08CE0DF011D928A95E9F795
:100FC0000DEC11E0F12CE12CC7010E949F0CF801FF
:100FD00081938F01FFEFEF1AFF0A8CE0E816F1040E
:100FE00099F760E082E00E94B90285E191E0909378
:100FF0000101809300018091690083608093690002
:10100000E89A82E00E94680580E00E9409066EE48A
:1010100071E086E792E00E94670381E00E94090682
:1010200062E471E086E792E00E94670368EE73E095
:1010300080E090E00E940F0380E00E9409066FE5C7
:1010400071E086E792E00E94670381E00E94090652
:1010500060E771E086E792E00E94670368EE73E064
:1010600080E090E00E940F030E9404010E940401AE
:10107000BC01990F880B990B0E94DB0D20E030E03A
:1010800040E251E40E946C0E20E030E040E85AE378
:101090000E946C0E4B015C016091D5017091D601EC
:1010A0008091D7019091D8010E94D90D20E030E0C5
:1010B0004AE754E40E94380DA50194010E94670E8E
:1010C00087FD35C00E94600580E00E94090640E16E
:1010D00050E061E871E086E792E00E946A0181E0F9
:1010E0000E940906DE0111967D018D0122E04EE08D
:1010F000C501B4010E945309F70101900020E9F7EE
:101100003197AF014E195F09B70186E792E00E945F
:101110006A0142E050E062E971E086E792E00E94F5
:101120006A0168EE73E080E090E00E940F030E9485
:10113000600580E00E94090640E150E065E971E049
:1011400086E792E00E946A01FE0131967F0180915C
:10115000CB019091CC018A30910509F09EC081E0CD
:101160000E9409062FB7F8948091BF019091C001A9
:10117000A091C101B091C2012FBF4091C701509110
:10118000C8016091C9017091CA01841B950BA60B1F
:10119000B70B4091C3015091C4016091C50170919A
:1011A000C601481759076A077B07A0F44091C3019D
:1011B0005091C4016091C5017091C601452B462B29
:1011C000472B41F08093C3019093C401A093C501C4
:1011D000B093C6018091C3019091C401A091C50153
:1011E000B091C601892B8A2B8B2B09F452C04090F9
:1011F000C3015090C4016090C5017090C601209158
:10120000CD013091CE014091CF015091D001A4E2A7
:10121000B0E00E94E70C0E94D90D4B015C01AAE0EE
:10122000B0E0A30192010E94E70C0E94D90D9B013E
:10123000AC01C501B4010E94380D870122E04CE0E9
:101240000E945309F70101900020E9F73197AF019F
:101250004E195F09B70186E792E00E946A0144E0F7
:1012600050E066EA71E086E792E00E946A0110921F
:10127000CC011092CB0162E370E080E090E00E942C
:101280000F030E94D401882309F461CF0E947C03DC
:101290005ECF60E070E0CB01D0CF01969093CC019F
:1012A0008093CB01E8CFEF920F931F93CF93DF93FF
:1012B000E80134E047FD34E1042E000C550B57FFE4
:1012C00003C0519541955109E32E022F242FAE0101
:1012D0000E94650ACE01DF91CF911F910F91EF908F
:1012E0000895B0E0A0E0E7E7F9E00C94F30C5C01AE
:1012F0006B017A016115710519F0FB0191838083FF
:10130000E114F10449F0C7010297839728F060E0E7
:1013100070E0CB019CC05E01E5012196F5011081D2
:10132000812F90E00E945C0A892BA9F71D3209F0F9
:1013300056C02196F501118101E0E114F10409F490
:10134000AEC0F0E1EF16F10409F08EC0103341F4A5
:1013500088818F7D883509F083C0198122960260CB
:10136000E0E1EE2EF12C88248A94982CA82CFFE042
:10137000BF2E20E060E070E0CB0127010F2C000CB5
:1013800066087708FE0150ED352E310E39E0331531
:1013900038F43FEB310F3A31A0F549EC342E310EE1
:1013A0003E141F04BCF52F3FB9F086169706A80619
:1013B000B90670F1A30192010E94B50C232D30E013
:1013C00050E040E0620F731F841F951F6217730780
:1013D00084079507E8F021E021961081D3CF1B32D6
:1013E00021F4E5012296F501118100E0A6CF78E015
:1013F000E72EF12C88248A94982CA82C6FE1B62E25
:10140000B8CF3FE9310F3A3128F439EA332EC7CF4C
:101410002FEFE2CFC114D10431F02223E9F021975C
:10142000F601D183C08300FF07C090958095709529
:1014300061957F4F8F4F9F4F2F3F49F482E290E09D
:1014400090938F0280938E026FEF7FEFCB01CDB729
:10145000DEB7E1E10C940F0D01FFE5CF2297E0CF5D
:1014600010E3E114F10419F23AE0E316F104E9F0B3
:1014700080E1E816F10409F473CFE8E0EE16F10418
:1014800009F4B8CF6FEF7FEFCB0197010F2C000C61
:10149000440B550B0E94C50C49015A016ACF103309
:1014A00009F456CF9AE0E92EF12C89E9882E982C80
:1014B000A82C89E1B82E5DCF91110C949C0C803240
:1014C00019F089508550C8F70895A9E0B0E0EBE61F
:1014D000FAE00C94F80C6A01F22EB02E102FFBE308
:1014E000AF2EA01608F41BE31F5F012F27E0AE010B
:1014F0004F5F5F4F0E94C40BBC018981982F997088
:10150000913009F43FC09BE2E1FC04C09E2D917034
:10151000E0FC3AC05E2D5071E82FE87083FF46C0B2
:1015200084E0911101C083E0EF2DE81B8F1508F0D6
:10153000E0E0D6018E2F20E2552351F1992329F0C6
:10154000D6019C93C60101966C0196012D5F3F4F19
:10155000E2FE24C08EE4D6018C9391E411969C9314
:10156000119712968C93D9018E2F90E281111BC096
:10157000E20FF32FF11D10828EEF9FEF2996ECE022
:101580000C94140D9DE2C6CF90E2C4CF2D938150F0
:101590008111FCCFCE0ED11CE0E0D0CF8EE6D6017B
:1015A0008C9391E6DBCF9D938150E0CF482F447020
:1015B00082FF3DC084E0911101C083E08F1510F4DB
:1015C000EF2DE81BD6018E2F20E2552309F1992338
:1015D00029F0D6019C93C60101966C0196012D5FFE
:1015E0003F4FE2FE1BC089E4D6018C938EE4119636
:1015F0008C93119786E412968C93D9018E2F90E2EA
:10160000882309F4B5CF9D938150FACF2D93815053
:101610008111FCCFCE0ED11CE0E0D9CF89E6D601F6
:101620008C938EE611968C93119786E6E4CF9B01FE
:1016300077FF02C030E020E0A1E0B0E0911102C0ED
:10164000B0E0A0E0F9013196AE0FBF1F8B2C912CBA
:10165000BB2009F461C05401EFEFAE1ABE0AAA0D17
:10166000BB1DFA161B0619F014F04F2D4A1B511121
:1016700088C0E3FC59C07601A42FB0E2A1114FC08D
:10168000C40ED11C992309F45BC040E0D601119629
:10169000F60190836D01552309F448C0012F060F10
:1016A0009A81582F507184FF03C0913309F401507F
:1016B00010160CF047C0093008F008E0EEE2FE2EEC
:1016C0005B01A01AB10885019194819491082F3F84
:1016D000320729F4D601FC92F60131966F016217A8
:1016E000730794F1021713077CF5DB01A21BB30B00
:1016F000AA24A394B12CAC0EBD1EAA0DBB1D11963D
:101700008C9121503109D601119628153905F4F034
:10171000F60180836D01DBCFB12CA12CA0CFF701A6
:10172000B1937F01A150AACF9111B0CFD601942FD0
:1017300050E302C05D9391509111FCCFC40ED11CB7
:1017400040E0ACCF01E0BACF80E3DBCF6217730794
:1017500031F4963388F4953311F4552369F0F6018A
:101760008083FD01842F90E2811108C0A40FB11D78
:101770001C9290E080E002CF81E3F1CF9193815001
:10178000F3CF911183CF8ACF283008F027E0332799
:10179000DA01990F311D87FD916000966105710591
:1017A00039F432602E5F3D9330E32A95E1F70895D6
:1017B0009F3F30F080387105610509F03C5F3C5F68
:1017C0003D93913008F08068911DDF93CF931F9374
:1017D0000F93FF92EF92192F987F9695E92F969588
:1017E0009695E90FFF27EE53FF4F99273327EE24F5
:1017F000FF24A701E70105900894079428F4360F09
:10180000E71EF81E491F511D660F771F881F991F7D
:101810000694A1F70590079428F4E70EF81E491FD7
:10182000561FC11D770F881F991F661F0694A1F7C9
:101830000590079428F4F80E491F561FC71FD11DA5
:10184000880F991F661F771F0694A1F705900794CC
:1018500020F4490F561FC71FD81F990F661F771F07
:10186000881F0694A9F784911095177041F0D695BA
:10187000C79557954795F794E7941A95C1F7E8E609
:10188000F0E06894159015913591659195910590CA
:101890007FE27395E118F10A430B560BC90BD0098F
:1018A000C0F7E10CF11E431F561FC91FD01D7EF467
:1018B000703311F48A95E6CFE894015030F0080FA8
:1018C0000AF40027021708F4202F2395022F7A33F9
:1018D00028F079E37D932A95E9F710C07D932A9546
:1018E00089F6069497956795379517951794E1189B
:1018F000F10A430B560BC90BD00998F023957E9142
:1019000073957A3308F070E37C932013B8F77E91D7
:1019100070617D9330F0839571E37D9370E32A9538
:10192000E1F71124EF90FF900F911F91CF91DF917C
:10193000992787FD90950895992788270895F99903
:10194000FECF92BD81BDF89A992780B50895262FC4
:10195000F999FECF1FBA92BD81BD20BD0FB6F89494
:10196000FA9AF99A0FBE01960895DB018F939F931F
:101970000E94E70CBF91AF91A29F800D911DA39F84
:10198000900DB29F900D11240895A1E21A2EAA1B6A
:10199000BB1BFD010DC0AA1FBB1FEE1FFF1FA2171F
:1019A000B307E407F50720F0A21BB30BE40BF50B1C
:1019B000661F771F881F991F1A9469F760957095A5
:1019C000809590959B01AC01BD01CF0108950E94C7
:1019D000290DA59F900DB49F900DA49F800D911D82
:1019E000112408952F923F924F925F926F927F92AF
:1019F0008F929F92AF92BF92CF92DF92EF92FF921F
:101A00000F931F93CF93DF93CDB7DEB7CA1BDB0BCA
:101A10000FB6F894DEBF0FBECDBF09942A8839886F
:101A200048885F846E847D848C849B84AA84B98476
:101A3000C884DF80EE80FD800C811B81AA81B98182
:101A4000CE0FD11D0FB6F894DEBF0FBECDBFED0196
:101A50000895A29FB001B39FC001A39F700D811D87
:101A60001124911DB29F700D811D1124911D0895A7
:101A70000E944C0D0C942D0E0E94260E58F00E94D0
:101A80001F0E40F029F45F3F29F00C94160E5111FF
:101A90000C94610E0C941C0E0E943E0E68F3992368
:101AA000B1F3552391F3951B550BBB27AA2762175A
:101AB0007307840738F09F5F5F4F220F331F441F67
:101AC000AA1FA9F335D00E2E3AF0E0E832D091509B
:101AD0005040E695001CCAF72BD0FE2F29D0660F88
:101AE000771F881FBB1F261737074807AB07B0E8CB
:101AF00009F0BB0B802DBF01FF2793585F4F3AF0D1
:101B00009E3F510578F00C94160E0C94610E5F3FC9
:101B1000E4F3983ED4F3869577956795B795F79556
:101B20009F5FC9F7880F911D9695879597F908953E
:101B3000E1E0660F771F881FBB1F621773078407DA
:101B4000BA0720F0621B730B840BBA0BEE1F88F7E9
:101B5000E09508950E94460E88F09F5798F0B92F9F
:101B60009927B751B0F0E1F0660F771F881F991FD2
:101B70001AF0BA95C9F714C0B13091F00E94600E06
:101B8000B1E008950C94600E672F782F8827B85F16
:101B900039F0B93FCCF3869577956795B395D9F72A
:101BA0003EF490958095709561957F4F8F4F9F4F34
:101BB0000895E89409C097FB3EF490958095709540
:101BC00061957F4F8F4F9F4F9923A9F0F92F96E989
:101BD000BB279395F695879577956795B795F111FE
:101BE000F8CFFAF4BB0F11F460FF1BC06F5F7F4F9B
:101BF0008F4F9F4F16C0882311F096E911C07723AD
:101C000021F09EE8872F762F05C0662371F096E8B5
:101C1000862F70E060E02AF09A95660F771F881F84
:101C2000DAF7880F9695879597F9089597F99F6742
:101C300080E870E060E008959FEF80EC0895002454
:101C40000A941616170618060906089500240A9421
:101C500012161306140605060895092E0394000CA7
:101C600011F4882352F0BB0F40F4BF2B11F460FF36
:101C700004C06F5F7F4F8F4F9F4F089557FD90585F
:101C8000440F551F59F05F3F71F04795880F97FB40
:101C9000991F61F09F3F79F08795089512161306FA
:101CA0001406551FF2CF4695F1DF08C01616170629
:101CB0001806991FF1CF869571056105089408955E
:101CC000E894BB2766277727CB0197F908950E94F0
:101CD000D90E08F48FEF08950E947F0E0C942D0EFC
:101CE0000E941F0E38F00E94260E20F0952311F05E
:101CF0000C94160E0C941C0E11240C94610E0E9470
:101D00003E0E70F3959FC1F3950F50E0551F629FF3
:101D1000F001729FBB27F00DB11D639FAA27F00D44
:101D2000B11DAA1F649F6627B00DA11D661F829F6B
:101D30002227B00DA11D621F739FB00DA11D621F50
:101D4000839FA00D611D221F749F3327A00D611D6D
:101D5000231F849F600D211D822F762F6A2F11244F
:101D60009F5750409AF0F1F088234AF0EE0FFF1F82
:101D7000BB1F661F771F881F91505040A9F79E3FD9
:101D8000510580F00C94160E0C94610E5F3FE4F345
:101D9000983ED4F3869577956795B795F795E7952F
:101DA0009F5FC1F7FE2B880F911D9695879597F938
:101DB0000895990F0008550FAA0BE0E8FEEF1616DC
:101DC0001706E807F907C0F012161306E407F5072F
:101DD00098F0621B730B840B950B39F40A2661F0A3
:101DE000232B242B252B21F408950A2609F4A14046
:101DF000A6958FEF811D811D0895EE0FFF1F0590A1
:101E0000F491E02D0994AEE0B0E0E9E0FFE00C943D
:101E1000000D0D891E8986E08C831A8309838FEF5C
:101E20009FE79E838D83AE01475E5F4F6F89788DFC
:101E3000CE0101960E94260F2F813885020F131FB5
:101E4000F80110822E96E4E00C941C0DABE0B0E09B
:101E5000ECE2FFE00C94F20C7C013B018A01FC01F6
:101E600017821682838181FFC8C1CE0101965C0171
:101E7000F7019381F30193FD859193FF81913F01D8
:101E8000882309F453C1853239F493FD859193FF7A
:101E900081913F01853229F4B70190E00E9416112B
:101EA000E7CF912C212C312CFFE1F31538F08B3248
:101EB00011F190F4803209F1833229F137FC3CC0F2
:101EC00020ED280F2A3050F536FE20C08AE0989E7B
:101ED000200D1124922E06C08D3291F0803371F7BF
:101EE000689430F8F30193FD859193FF81913F0150
:101EF0008111DACF21C0689431F8689432F8F2CFBA
:101F0000689433F8EFCF689434F8ECCFEAE02E9E73
:101F1000200D1124222E689435F8E4CF8E3229F456
:101F200036FC04C1689436F8DDCF8C3619F4689419
:101F300037F8D8CF8836B1F2982F9F7D95549330DB
:101F4000E0F08336A1F18337C1F1833509F063C036
:101F50002801F2E04F0E511CF801C080D180692D9C
:101F600070E036FC02C06FEF7FEFC6010E940011E7
:101F70004C01689437F882010AC00C5F1F4FFFE3E1
:101F8000F98388248394912C6501E89437F833FE13
:101F90002DC0522C8114910471F5552009F468CF9D
:101FA000B70180E290E00E9416115A94F6CFF80132
:101FB000808189830E5F1F4FE4CF2801F2E04F0E2E
:101FC000511CF801C080D180692D70E036FC02C040
:101FD0006FEF7FEFC6010E940B114C018201D5CF3C
:101FE000B70180E290E00E9416112A942814190487
:101FF00009F0B0F7CECFF60137FC859137FE81911D
:102000006F01B70190E00E94161151105A94F1E04F
:102010008F1A9108BFCF843619F0893609F077C03E
:10202000F80137FE6BC060817181828193810C5F02
:102030001F4FF32DFF763F2E97FF09C09095809597
:10204000709561957F4F8F4F9F4F689437F82AE0C6
:1020500030E0A5010E944611C82ECA188C2C432CD2
:1020600036FE0CC0E89440F8C91440F434FE05C0B4
:1020700032FC03C0F32DFE7E4F2E892C44FE95C00A
:10208000FE01EC0DF11D8081803309F087C0242D05
:10209000297E422E842D8870582E43FC95C040FE28
:1020A0008FC09C2C821418F42C0C922C981844FE8F
:1020B00091C0B70180E390E00E94161142FE09C072
:1020C00088E790E041FE02C088E590E0B7010E94F9
:1020D0001611C91408F48AC0CA94D12C9FEFC91AEA
:1020E000D90ACA0CDB1CF60182916F01B70190E09E
:1020F0000E941611AC14BD04B1F74FCF60817181FD
:10210000072E000C880B990B0E5F1F4F92CFD32C1C
:10211000E894D4F82AE030E0853739F1232D297F7F
:10212000D22E8F3601F148F48835A9F0F701868167
:1021300097812B96E2E10C940E0D803749F0883799
:10214000A9F7D4FE02C06894D2F820E130E00DC0B7
:102150006894D4F8F6CF34FE03C0822F8660D82E60
:1021600020E132E002C028E030E0F801D7FE0FC0E5
:1021700060817181828193810C5F1F4FA5010E9454
:102180004611C82ECA183D2CE89437F867CF6081F5
:10219000718190E080E00E5F1F4FF0CF42FC02C0E3
:1021A000839478CF8394839475CF842D867809F4B3
:1021B00071CFF6CFB70180E290E00E9416118394B0
:1021C0008214C0F3512C73CF522C5818821408F487
:1021D0006ECFF8CF842D867809F47BCF8BE241FE59
:1021E00080E247FC8DE2B70190E071CFB70180E358
:1021F00090E00E9416119A946CCF8FEF9FEF99CFC9
:10220000FC010590615070400110D8F780959095C1
:102210008E0F9F1F0895FC016150704001900110C6
:10222000D8F7809590958E0F9F1F08950F931F9359
:10223000CF93DF93182F092FEB018B8181FD09C00C
:102240001FEF0FEF812F902FDF91CF911F910F91F3
:10225000089582FF14C02E813F818C819D812817B3
:1022600039073CF4E881F981CF010196998388838D
:1022700010838E819F8101969F838E83E3CFE885B3
:10228000F985812F0995892BA1F3DACFFA01AA27C5
:10229000283051F1203181F1E8946F936E7F6E5FA9
:1022A0007F4F8F4F9F4FAF4FB1E03ED0B4E03CD057
:1022B000670F781F891F9A1FA11D680F791F8A1F3A
:1022C000911DA11D6A0F711D811D911DA11D20D0A1
:1022D00009F468943F912AE0269F11243019305D5B
:1022E0003193DEF6CF010895462F4770405D41934C
:1022F000B3E00FD0C9F7F6CF462F4F70405D4A3399
:1023000018F0495D31FD4052419302D0A9F7EACF60
:10231000B4E0A6959795879577956795BA95C9F78F
:1023200000976105710508959B01AC010A2E069482
:102330005795479537952795BA95C9F7620F731F3B
:0C234000841F951FA01D0895F894FFCF86
:10234C00410341030000000000026A0197014D02A5
:10235C00C801A601BA010000000017066A01430378
:10236C004203302E3200256C753B256C753B257372
:10237C003B256C753B256C750A004552520A004F83
:10238C004B0A006D7068204D657465720A00202040
:10239C0020206D2F68204D65746572202020002050
:1023AC0020207772697474656E2062792020200079
:1023BC004D69636861656C20466965646572657218
:1023CC0000202042617474657279206C6F77212033
:1023DC002000205600204D657465722070657220B7
:0C23EC00686F75722000206D70680000A2
:00000001FF
